:100000000C9466000C948E000C948E000C948E0060
:100010000C948E000C948E000C948E000C948E0028
:100020000C948E000C948E000C948E000C948E0018
:100030000C948E000C948E000C948E000C948E0008
:100040000C94F2020C948E000C948E000C948E0092
:100050000C948E000C948E000C948E000C948E00E8
:100060000C948E000C948E00EE030104F003F30355
:10007000F503F803FA03FD03000000002400270045
:100080002A0000000000250028002B0004040404BE
:100090000404040402020202020203030303030332
:1000A000010204081020408001020408102001020F
:1000B00004081020000000080002010000030407EB
:1000C00000000000000000005805B40511241FBE08
:1000D000CFEFD8E0DEBFCDBF11E0A0E0B1E0E6E8B1
:1000E000FFE002C005900D92AA30B107D9F721E0D8
:1000F000AAE0B1E001C01D92AC32B207E1F710E016
:10010000C5E6D0E004C02197FE010E948306C436F4
:10011000D107C9F70E943C030C94B6070C94000069
:1001200090E0FC01EC54FF4F2491FC01E056FF4F9E
:100130003491FC01E457FF4FE491EE23B9F12223FF
:1001400039F1233091F038F42130A9F0223001F553
:1001500084B58F7D12C0273091F02830A1F0243073
:10016000B9F4809180008F7D03C0809180008F77EB
:10017000809380000DC084B58F7784BD09C08091C5
:10018000B0008F7703C08091B0008F7D8093B00066
:10019000F0E0EE0FFF1FEE57FF4FA591B4918FB720
:1001A000F894EC9130953E233C938FBF0895CF9304
:1001B000DF9390E0FC01E056FF4F2491FC01E457EF
:1001C000FF4F8491882361F190E0880F991FFC0113
:1001D000E858FF4FC591D491FC01EE57FF4FA59110
:1001E000B491611109C09FB7F8948881209582234A
:1001F0008883EC912E230BC0623061F49FB7F89492
:100200003881822F809583238883EC912E2B2C9329
:100210009FBF06C08FB7F894E8812E2B28838FBF2D
:10022000DF91CF9108953FB7F89480912401909188
:100230002501A0912601B091270126B5A89B05C0F4
:100240002F3F19F00196A11DB11D3FBFBA2FA92F55
:10025000982F8827820F911DA11DB11DBC01CD01D2
:1002600042E0660F771F881F991F4A95D1F70895BE
:100270008F929F92AF92BF92CF92DF92EF92FF92B6
:100280006B017C010E9413014B015C01C114D1047C
:10029000E104F104F1F00E941301DC01CB018819A3
:1002A0009909AA09BB09883E9340A105B10570F3DD
:1002B00021E0C21AD108E108F10888EE880E83E037
:1002C000981EA11CB11CC114D104E104F10419F75A
:1002D000DDCFFF90EF90DF90CF90BF90AF909F90D9
:1002E0008F9008958F929F92AF92BF92EF92FF925C
:1002F0000F931F93CF93DF93CDB7DEB729970FB638
:10030000F894DEBF0FBECDBF962F342FE82FF0E05C
:1003100060910C0170910D01E617F70708F053C0CA
:10032000422F50E060E070E0532B692B4B01AA2470
:10033000BB24052F162F272F3327F02EE42E909164
:100340001101992391F0E92EF12CE89CD001E99C50
:10035000B00DF89CB00D11248B2E099F8001112443
:10036000F12E499FA0011124E52E90911701409193
:1003700014012091120130911301941307C0F90167
:1003800093E0899FE00DF11D11240AC0EE0FFF1FBD
:10039000EE0FFF1FE20FF31FDF01A90FB11D1C922B
:1003A000809114019F01280F311DD9018C928091F9
:1003B00015019F01280F311DD901FC928091160172
:1003C000E80FF11DE0828091120190911301892BB9
:1003D00009F4A2C00E9413010091180110911901A3
:1003E00020911A0130911B01DC01CB01801B910B84
:1003F000A20BB30B8C329140A105B10558F3F894D0
:1004000080910E0190910F019A838983E0911201EE
:10041000F0911301DF0111968081898790910A0183
:10042000E0911C01F0911D0180911E01992309F4B6
:100430002EC09081982B98879081809589238F83F7
:100440008F818C8388E08B8358856F8149853B81C0
:100450002C8189819A81508347FD252F3A952083ED
:10046000262F39F0441F00C000006083000000C048
:10047000F2CF38E04D9160830000019761F7F0936F
:100480001D01E0931C0149873B832C8338C0908178
:10049000982B98879081809589238F838F818E8375
:1004A00088E08D8358856F8149853D812E818981C2
:1004B0009A81508347FD252F00C000C0208300C0D3
:1004C00000C000C000C000C060830000262F3A9525
:1004D00041F0441F000000C000C000C000C000C0C8
:1004E000E8CF38E04D9100C0608300C0019709F764
:1004F000F0931D01E0931C0149873D832E839A836D
:10050000898378940E9413016093180170931901F4
:1005100080931A0190931B0129960FB6F894DEBFC1
:100520000FBECDBFDF91CF911F910F91FF90EF9044
:10053000BF90AF909F908F900895CF93C0E020E040
:1005400040E068E78C2F0E947201CF5FC031B9F79D
:1005500068EE73E080E090E00E943801C0E020E0A7
:1005600048E760E08C2F0E947201CF5FC031B9F77D
:1005700068EE73E080E090E00E943801C0E020E087
:1005800048E768E78C2F0E947201CF5FC031B9F74E
:1005900068EE73E080E090E00E943801C0E028E758
:1005A00040E060E08C2F0E947201CF5FC031B9F74C
:1005B00068EE73E080E090E0CF910C94380120E089
:1005C00040E060E00C947201CF93DF93C0E0D0E094
:1005D000CE010E94DF022196C031D105C9F7DF911B
:1005E000CF9108951F920F920FB60F9211242F935F
:1005F0003F938F939F93AF93BF93809120019091EE
:100600002101A0912201B091230130911F0123E02B
:10061000230F2D3720F40196A11DB11D05C026E83A
:10062000230F0296A11DB11D20931F01809320016D
:1006300090932101A0932201B09323018091240182
:1006400090912501A0912601B09127010196A11D4D
:10065000B11D8093240190932501A0932601B093AE
:100660002701BF91AF919F918F913F912F910F9053
:100670000FBE0F901F901895CF93DF93CDB7DEB7C5
:1006800028970FB6F894DEBF0FBECDBF789484B51F
:10069000826084BD84B5816084BD85B5826085BD7E
:1006A00085B5816085BD80916E00816080936E000C
:1006B00010928100809181008260809381008091FE
:1006C00081008160809381008091800081608093AF
:1006D00080008091B10084608093B1008091B0006F
:1006E00081608093B00080917A00846080937A006A
:1006F00080917A00826080937A0080917A00816094
:1007000080937A0080917A00806880937A001092BA
:10071000C1008091100187FD07C061E00E94D700F1
:10072000809110010E94900081E080930B0180E491
:1007300080937C0080917A00806480937A0080911D
:100740007A0086FDFCCF609178008091790070E09E
:10075000782B072E000C880B990B6115710581050C
:10076000910511F00E94170638E7432E512C612C99
:10077000712C00E411E0912C88E0890D8F70882E97
:100780001A821982E92CF12CA82EB12C20E1322EEC
:100790003918670188E0C80ED11CE981FA81EE158D
:1007A000FF053CF0EC15FD050CF082C0E981E9196C
:1007B0000BC0891408F07CC089819A818A159B0539
:1007C0000CF076C0E981E30D8E2F90E08830910522
:1007D000C0F4FC01EC5CFF4F0C94830620E006C0E3
:1007E00020E040E510C020E00DC028E740E00BC04D
:1007F00020E001C028E748E702C028E740E060E0C9
:1008000003C028E748E768E789810E947201E9810F
:10081000FA813196FA83E983709709F0BECF81E0BF
:10082000890D8F70982E62E370E080E090E00E9466
:1008300038010150110909F09FCF0E94E402212CD8
:1008400001E010E000FD02C0198202C0F8E7F98360
:1008500001FD02C01D8202C088E78D8302FD02C037
:100860001E8202C098E79E8390E5892E912C8AE033
:10087000820D8F70382E18861F82E22CF12CC82E24
:10088000D12C5701EAE0AE0EB11C8F8198858E15F0
:100890009F0524F08A159B0584F005C1321408F0E9
:1008A00002C1EF81F885EC15FD050CF0FCC005C018
:1008B00089819A810E94DF02AACF2E814D816981B0
:1008C0008F810E9472018F819885019698878F830E
:1008D0004097D9F681E0820D8F70282E62E370E098
:1008E00080E090E00E94380191E0891A910809F0B7
:1008F000BECF0F5F1F4F0730110509F0A3CF0E9435
:10090000E40264EF71E080E090E00E94380111E0C1
:10091000E12CF12CC70183709927009719F420E08E
:1009200040E011C08130910519F4212F40E005C04D
:100930008230910521F420E0412F60E005C003974B
:1009400031F420E0412F612F8E2D0E947201EFEFD4
:10095000EE1AFE0AF0E1EF16F104E1F664E670E04B
:1009600080E090E00E9438011B5F1B3F89F60E94E7
:10097000E40264EF71E080E090E00E9438010E94A0
:100980009D020E94E40264EF71E080E090E00E942A
:10099000380100E010E068018FE0C822DD24E12C7E
:1009A000F12CC70183709927009719F420E040E0EB
:1009B00011C08130910519F428E740E005C082306C
:1009C000910521F420E048E760E005C0039739F481
:1009D00020E048E768E78C2D8F700E9472019FEF3E
:1009E000E91AF90AEFEFCE1ADE0AF0E1EF16F10488
:1009F000C1F664EF71E080E090E00E9438010F5F83
:100A00001F4F0032110539F60E949D0264EF71E01C
:100A100080E090E00E94380184E1282E312C10E023
:100A20000E94120669837A838B839C830E9412063C
:100A30004B015C010E9412066B017C0169817A8185
:100A40008B819C81A30192010E942006062FC50183
:100A5000B401A30192010E942006B62EC701B6017F
:100A6000A30192010E942006202F4B2D812F0E946E
:100A700072011F5F1031A1F668EE73E080E090E034
:100A80000E94380181E0281A310849F664EF71E0CC
:100A900080E090E00E943801E0E0F0E0309709F457
:100AA00068CE099566CE8F8198850E94DF020BCFB4
:100AB00010920B011092110110921801109219015D
:100AC00010921A0110921B0181E08093170180930C
:100AD00014011092150192E09093160180930A017F
:100AE00080E390E090930F0180930E010E948906AD
:100AF0009093130180931201009761F020E3FC01B1
:100B000011922A95E9F780E190E090930D0180938E
:100B10000C0108C010920F0110920E0110920D01ED
:100B200010920C0183E08093100180910B018823C7
:100B300039F061E083E00E94D70083E00E949000DA
:100B4000EFE8F0E0E491F0E0EE0FFF1FEE57FF4F0B
:100B50008591949190931D0180931C01E3EAF0E04C
:100B6000E491E0931E010895809112019091130188
:100B7000009711F00E941E078091100187FD03C0AD
:100B800060E00C94D70008958F929F92AF92BF922D
:100B9000CF92DF92EF92FF92CF93DF93EC016881C7
:100BA00079818A819B81611571058105910521F407
:100BB00064E279ED8BE597E02DE133EF41E050E021
:100BC0000E94200649015A019B01AC01A7EAB1E449
:100BD0000E943F066B017C01ACEEB4EFA5019401CD
:100BE0000E944D06DC01CB018C0D9D1DAE1DBF1D6D
:100BF000B7FF03C00197A109B04888839983AA83EE
:100C0000BB83BC01CD019F77DF91CF91FF90EF9027
:100C1000DF90CF90BF90AF909F908F9008950E94EB
:100C2000C405089580E091E00E94C4050895609392
:100C300000017093010180930201909303010895D4
:100C4000052E97FB1EF400940E94370657FD07D02F
:100C50000E94520607FC03D04EF40C9437065095C0
:100C60004095309521953F4F4F4F5F4F0895909598
:100C70008095709561957F4F8F4F9F4F08950E948B
:100C80007406A59F900DB49F900DA49F800D911D9B
:100C900011240895B7FF0C943F060E943F06821B63
:100CA000930B0895A1E21A2EAA1BBB1BFD010DC0D8
:100CB000AA1FBB1FEE1FFF1FA217B307E407F5070C
:100CC00020F0A21BB30BE40BF50B661F771F881FE8
:100CD000991F1A9469F760957095809590959B017E
:100CE000AC01BD01CF010895A29FB001B39FC00127
:100CF000A39F700D811D1124911DB29F700D811D48
:100D00001124911D0895EE0FFF1F0590F491E02D21
:100D10000994CF93DF938230910510F482E090E044
:100D2000E0912A01F0912B0120E030E0C0E0D0E01A
:100D3000309711F14081518148175907C0F0481789
:100D4000590761F482819381209719F09B838A83EC
:100D50002BC090932B0180932A0126C021153105C9
:100D600019F04217530718F49A01BE01DF01EF0191
:100D70000280F381E02DDCCF2115310509F1281B1C
:100D8000390B2430310590F412968D919C91139774
:100D90006115710521F0FB019383828304C0909358
:100DA0002B0180932A01FD01329644C0FD01E20F20
:100DB000F31F81939193225031092D933C933AC0B4
:100DC0002091280130912901232B41F42091060123
:100DD00030910701309329012093280120910401CB
:100DE000309105012115310541F42DB73EB74091F1
:100DF000080150910901241B350BE0912801F09165
:100E00002901E217F307A0F42E1B3F0B281739071F
:100E100078F0AC014E5F5F4F2417350748F04E0F56
:100E20005F1F50932901409328018193919302C041
:100E3000E0E0F0E0CF01DF91CF9108950F931F9391
:100E4000CF93DF93009709F48CC0FC013297138293
:100E5000128200912A0110912B010115110581F4D4
:100E600020813181820F931F209128013091290127
:100E70002817390779F5F0932901E093280171C00B
:100E8000D80140E050E0AE17BF0750F412962D9104
:100E90003C911397AD012115310509F1D901F3CF2B
:100EA0009D01DA013383228360817181860F971F50
:100EB0008217930769F4EC0128813981260F371FC7
:100EC0002E5F3F4F318320838A819B81938382836E
:100ED000452B29F4F0932B01E0932A0142C013968D
:100EE000FC93EE931297ED01499159919E01240FC5
:100EF000351FE217F30771F480819181840F951FEC
:100F0000029611969C938E938281938113969C9363
:100F10008E931297E0E0F0E0D80112968D919C91AB
:100F20001397009719F0F8018C01F6CF8D919C91E1
:100F300098012E5F3F4F820F931F2091280130911F
:100F400029012817390769F4309729F410922B01E9
:100F500010922A0102C01382128210932901009379
:100F60002801DF91CF911F910F91089510E0C5E600
:100F7000D0E004C0FE010E9483062196C636D10748
:060F8000C9F7F894FFCF51
:0A0F86000100000000002C018000B3
:00000001FF
